{
  "contractName": "NFTCrowdsale",
  "abi": [
    {
      "anonymous": false,
      "inputs": [
        {
          "indexed": true,
          "internalType": "address",
          "name": "account",
          "type": "address"
        }
      ],
      "name": "MinterAdded",
      "type": "event"
    },
    {
      "anonymous": false,
      "inputs": [
        {
          "indexed": true,
          "internalType": "address",
          "name": "account",
          "type": "address"
        }
      ],
      "name": "MinterRemoved",
      "type": "event"
    },
    {
      "constant": false,
      "inputs": [
        {
          "internalType": "address",
          "name": "account",
          "type": "address"
        }
      ],
      "name": "addMinter",
      "outputs": [],
      "payable": false,
      "stateMutability": "nonpayable",
      "type": "function"
    },
    {
      "constant": true,
      "inputs": [
        {
          "internalType": "address",
          "name": "account",
          "type": "address"
        }
      ],
      "name": "isMinter",
      "outputs": [
        {
          "internalType": "bool",
          "name": "",
          "type": "bool"
        }
      ],
      "payable": false,
      "stateMutability": "view",
      "type": "function"
    },
    {
      "constant": true,
      "inputs": [
        {
          "internalType": "uint256",
          "name": "",
          "type": "uint256"
        }
      ],
      "name": "items",
      "outputs": [
        {
          "internalType": "uint256",
          "name": "index",
          "type": "uint256"
        },
        {
          "internalType": "uint256",
          "name": "tokenID",
          "type": "uint256"
        },
        {
          "internalType": "uint256",
          "name": "price",
          "type": "uint256"
        },
        {
          "internalType": "address",
          "name": "tokenAddress",
          "type": "address"
        },
        {
          "internalType": "address payable",
          "name": "owner",
          "type": "address"
        },
        {
          "internalType": "string",
          "name": "url",
          "type": "string"
        }
      ],
      "payable": false,
      "stateMutability": "view",
      "type": "function"
    },
    {
      "constant": true,
      "inputs": [
        {
          "internalType": "uint256",
          "name": "",
          "type": "uint256"
        }
      ],
      "name": "listedTokens",
      "outputs": [
        {
          "internalType": "bool",
          "name": "",
          "type": "bool"
        }
      ],
      "payable": false,
      "stateMutability": "view",
      "type": "function"
    },
    {
      "constant": false,
      "inputs": [],
      "name": "renounceMinter",
      "outputs": [],
      "payable": false,
      "stateMutability": "nonpayable",
      "type": "function"
    },
    {
      "constant": false,
      "inputs": [
        {
          "internalType": "uint256",
          "name": "_tokenID",
          "type": "uint256"
        },
        {
          "internalType": "uint256",
          "name": "_price",
          "type": "uint256"
        },
        {
          "internalType": "address",
          "name": "_tokenAddress",
          "type": "address"
        },
        {
          "internalType": "string",
          "name": "_url",
          "type": "string"
        }
      ],
      "name": "listForSale",
      "outputs": [],
      "payable": false,
      "stateMutability": "nonpayable",
      "type": "function"
    },
    {
      "constant": false,
      "inputs": [
        {
          "internalType": "uint256",
          "name": "_index",
          "type": "uint256"
        }
      ],
      "name": "buyNFT",
      "outputs": [],
      "payable": true,
      "stateMutability": "payable",
      "type": "function"
    },
    {
      "constant": true,
      "inputs": [],
      "name": "getItemsList",
      "outputs": [
        {
          "components": [
            {
              "internalType": "uint256",
              "name": "index",
              "type": "uint256"
            },
            {
              "internalType": "uint256",
              "name": "tokenID",
              "type": "uint256"
            },
            {
              "internalType": "uint256",
              "name": "price",
              "type": "uint256"
            },
            {
              "internalType": "address",
              "name": "tokenAddress",
              "type": "address"
            },
            {
              "internalType": "address payable",
              "name": "owner",
              "type": "address"
            },
            {
              "internalType": "string",
              "name": "url",
              "type": "string"
            }
          ],
          "internalType": "struct NFTCrowdsale.Item[]",
          "name": "",
          "type": "tuple[]"
        }
      ],
      "payable": false,
      "stateMutability": "view",
      "type": "function"
    },
    {
      "constant": true,
      "inputs": [],
      "name": "totalItems",
      "outputs": [
        {
          "internalType": "uint256",
          "name": "",
          "type": "uint256"
        }
      ],
      "payable": false,
      "stateMutability": "view",
      "type": "function"
    }
  ],
  "bytecode": "0x608060405262000024620000186200003160201b60201c565b6200003960201b60201c565b6001808190555062000317565b600033905090565b620000548160006200009a60201b62000fba1790919060201c565b8073ffffffffffffffffffffffffffffffffffffffff167f6ae172837ea30b801fbfcdd4108aa1d5bf8ff775444fd70256b44e6bf3dfc3f660405160405180910390a250565b620000ac82826200014d60201b60201c565b15620000ef576040517f08c379a0000000000000000000000000000000000000000000000000000000008152600401620000e690620002c2565b60405180910390fd5b60018260000160008373ffffffffffffffffffffffffffffffffffffffff1673ffffffffffffffffffffffffffffffffffffffff16815260200190815260200160002060006101000a81548160ff0219169083151502179055505050565b60008073ffffffffffffffffffffffffffffffffffffffff168273ffffffffffffffffffffffffffffffffffffffff161415620001c1576040517f08c379a0000000000000000000000000000000000000000000000000000000008152600401620001b890620002e4565b60405180910390fd5b8260000160008373ffffffffffffffffffffffffffffffffffffffff1673ffffffffffffffffffffffffffffffffffffffff16815260200190815260200160002060009054906101000a900460ff16905092915050565b600062000227601f8362000306565b91507f526f6c65733a206163636f756e7420616c72656164792068617320726f6c65006000830152602082019050919050565b60006200026960228362000306565b91507f526f6c65733a206163636f756e7420697320746865207a65726f20616464726560008301527f73730000000000000000000000000000000000000000000000000000000000006020830152604082019050919050565b60006020820190508181036000830152620002dd8162000218565b9050919050565b60006020820190508181036000830152620002ff816200025a565b9050919050565b600082825260208201905092915050565b611e3d80620003276000396000f3fe6080604052600436106100865760003560e01c80638ff152a8116100595780638ff152a814610138578063983b2d5614610163578063986502751461018c578063aa271e1a146101a3578063bfb231d2146101e057610086565b80632799276d1461008b578063295f5499146100b657806351ed8288146100df5780635a9d1ac3146100fb575b600080fd5b34801561009757600080fd5b506100a0610222565b6040516100ad9190611ba7565b60405180910390f35b3480156100c257600080fd5b506100dd60048036036100d89190810190611452565b61022f565b005b6100f960048036036100f49190810190611429565b61066d565b005b34801561010757600080fd5b50610122600480360361011d9190810190611429565b610aa0565b60405161012f9190611a6c565b60405180910390f35b34801561014457600080fd5b5061014d610ac0565b60405161015a9190611a4a565b60405180910390f35b34801561016f57600080fd5b5061018a600480360361018591908101906113d7565b610c8b565b005b34801561019857600080fd5b506101a1610ce6565b005b3480156101af57600080fd5b506101ca60048036036101c591908101906113d7565b610cf8565b6040516101d79190611a6c565b60405180910390f35b3480156101ec57600080fd5b5061020760048036036102029190810190611429565b610d15565b60405161021996959493929190611bc2565b60405180910390f35b6000600280549050905090565b60018060008282540192505081905550600060015490506000600280549050905060008490508073ffffffffffffffffffffffffffffffffffffffff16636352211e886040518263ffffffff1660e01b815260040161028e9190611ba7565b60206040518083038186803b1580156102a657600080fd5b505afa1580156102ba573d6000803e3d6000fd5b505050506040513d601f19601f820116820180604052506102de9190810190611400565b73ffffffffffffffffffffffffffffffffffffffff163373ffffffffffffffffffffffffffffffffffffffff161461034b576040517f08c379a000000000000000000000000000000000000000000000000000000000815260040161034290611aa7565b60405180910390fd5b6003600088815260200190815260200160002060009054906101000a900460ff16156103ac576040517f08c379a00000000000000000000000000000000000000000000000000000000081526004016103a390611ac7565b60405180910390fd5b8073ffffffffffffffffffffffffffffffffffffffff1663081812fc886040518263ffffffff1660e01b81526004016103e59190611ba7565b60206040518083038186803b1580156103fd57600080fd5b505afa158015610411573d6000803e3d6000fd5b505050506040513d601f19601f820116820180604052506104359190810190611400565b73ffffffffffffffffffffffffffffffffffffffff163073ffffffffffffffffffffffffffffffffffffffff16146104a2576040517f08c379a000000000000000000000000000000000000000000000000000000000815260040161049990611b67565b60405180910390fd5b60026040518060c001604052808481526020018981526020018881526020018773ffffffffffffffffffffffffffffffffffffffff1681526020013373ffffffffffffffffffffffffffffffffffffffff168152602001868152509080600181540180825580915050906001820390600052602060002090600602016000909192909190915060008201518160000155602082015181600101556040820151816002015560608201518160030160006101000a81548173ffffffffffffffffffffffffffffffffffffffff021916908373ffffffffffffffffffffffffffffffffffffffff16021790555060808201518160040160006101000a81548173ffffffffffffffffffffffffffffffffffffffff021916908373ffffffffffffffffffffffffffffffffffffffff16021790555060a08201518160050190805190602001906105f0929190611109565b5050505060016003600089815260200190815260200160002060006101000a81548160ff02191690831515021790555050506001548114610666576040517f08c379a000000000000000000000000000000000000000000000000000000000815260040161065d90611b87565b60405180910390fd5b5050505050565b60018060008282540192505081905550600060015490506002828154811061069157fe5b90600052602060002090600602016002015434146106e4576040517f08c379a00000000000000000000000000000000000000000000000000000000081526004016106db90611b47565b60405180910390fd5b6000600283815481106106f357fe5b906000526020600020906006020160030160009054906101000a900473ffffffffffffffffffffffffffffffffffffffff1690508073ffffffffffffffffffffffffffffffffffffffff166342842e0e6002858154811061075057fe5b906000526020600020906006020160040160009054906101000a900473ffffffffffffffffffffffffffffffffffffffff16336002878154811061079057fe5b9060005260206000209060060201600101546040518463ffffffff1660e01b81526004016107c093929190611a13565b600060405180830381600087803b1580156107da57600080fd5b505af11580156107ee573d6000803e3d6000fd5b50505050600283815481106107ff57fe5b906000526020600020906006020160040160009054906101000a900473ffffffffffffffffffffffffffffffffffffffff1673ffffffffffffffffffffffffffffffffffffffff166108fc349081150290604051600060405180830381858888f19350505050158015610876573d6000803e3d6000fd5b506000600360006002868154811061088a57fe5b906000526020600020906006020160010154815260200190815260200160002060006101000a81548160ff021916908315150217905550826002600160028054905003815481106108d757fe5b90600052602060002090600602016000018190555060026001600280549050038154811061090157fe5b90600052602060002090600602016002848154811061091c57fe5b90600052602060002090600602016000820154816000015560018201548160010155600282015481600201556003820160009054906101000a900473ffffffffffffffffffffffffffffffffffffffff168160030160006101000a81548173ffffffffffffffffffffffffffffffffffffffff021916908373ffffffffffffffffffffffffffffffffffffffff1602179055506004820160009054906101000a900473ffffffffffffffffffffffffffffffffffffffff168160040160006101000a81548173ffffffffffffffffffffffffffffffffffffffff021916908373ffffffffffffffffffffffffffffffffffffffff16021790555060058201816005019080546001816001161561010002031660029004610a3d929190611189565b509050506002805480919060019003610a569190611210565b50506001548114610a9c576040517f08c379a0000000000000000000000000000000000000000000000000000000008152600401610a9390611b87565b60405180910390fd5b5050565b60036020528060005260406000206000915054906101000a900460ff1681565b60606002805480602002602001604051908101604052809291908181526020016000905b82821015610c8257838290600052602060002090600602016040518060c00160405290816000820154815260200160018201548152602001600282015481526020016003820160009054906101000a900473ffffffffffffffffffffffffffffffffffffffff1673ffffffffffffffffffffffffffffffffffffffff1673ffffffffffffffffffffffffffffffffffffffff1681526020016004820160009054906101000a900473ffffffffffffffffffffffffffffffffffffffff1673ffffffffffffffffffffffffffffffffffffffff1673ffffffffffffffffffffffffffffffffffffffff168152602001600582018054600181600116156101000203166002900480601f016020809104026020016040519081016040528092919081815260200182805460018160011615610100020316600290048015610c6a5780601f10610c3f57610100808354040283529160200191610c6a565b820191906000526020600020905b815481529060010190602001808311610c4d57829003601f168201915b50505050508152505081526020019060010190610ae4565b50505050905090565b610c9b610c96610e36565b610cf8565b610cda576040517f08c379a0000000000000000000000000000000000000000000000000000000008152600401610cd190611ae7565b60405180910390fd5b610ce381610e3e565b50565b610cf6610cf1610e36565b610e98565b565b6000610d0e826000610ef290919063ffffffff16565b9050919050565b60028181548110610d2257fe5b90600052602060002090600602016000915090508060000154908060010154908060020154908060030160009054906101000a900473ffffffffffffffffffffffffffffffffffffffff16908060040160009054906101000a900473ffffffffffffffffffffffffffffffffffffffff1690806005018054600181600116156101000203166002900480601f016020809104026020016040519081016040528092919081815260200182805460018160011615610100020316600290048015610e2c5780601f10610e0157610100808354040283529160200191610e2c565b820191906000526020600020905b815481529060010190602001808311610e0f57829003601f168201915b5050505050905086565b600033905090565b610e52816000610fba90919063ffffffff16565b8073ffffffffffffffffffffffffffffffffffffffff167f6ae172837ea30b801fbfcdd4108aa1d5bf8ff775444fd70256b44e6bf3dfc3f660405160405180910390a250565b610eac81600061106290919063ffffffff16565b8073ffffffffffffffffffffffffffffffffffffffff167fe94479a9f7e1952cc78f2d6baab678adc1b772d936c6583def489e524cb6669260405160405180910390a250565b60008073ffffffffffffffffffffffffffffffffffffffff168273ffffffffffffffffffffffffffffffffffffffff161415610f63576040517f08c379a0000000000000000000000000000000000000000000000000000000008152600401610f5a90611b27565b60405180910390fd5b8260000160008373ffffffffffffffffffffffffffffffffffffffff1673ffffffffffffffffffffffffffffffffffffffff16815260200190815260200160002060009054906101000a900460ff16905092915050565b610fc48282610ef2565b15611004576040517f08c379a0000000000000000000000000000000000000000000000000000000008152600401610ffb90611a87565b60405180910390fd5b60018260000160008373ffffffffffffffffffffffffffffffffffffffff1673ffffffffffffffffffffffffffffffffffffffff16815260200190815260200160002060006101000a81548160ff0219169083151502179055505050565b61106c8282610ef2565b6110ab576040517f08c379a00000000000000000000000000000000000000000000000000000000081526004016110a290611b07565b60405180910390fd5b60008260000160008373ffffffffffffffffffffffffffffffffffffffff1673ffffffffffffffffffffffffffffffffffffffff16815260200190815260200160002060006101000a81548160ff0219169083151502179055505050565b828054600181600116156101000203166002900490600052602060002090601f016020900481019282601f1061114a57805160ff1916838001178555611178565b82800160010185558215611178579182015b8281111561117757825182559160200191906001019061115c565b5b5090506111859190611242565b5090565b828054600181600116156101000203166002900490600052602060002090601f016020900481019282601f106111c257805485556111ff565b828001600101855582156111ff57600052602060002091601f016020900482015b828111156111fe5782548255916001019190600101906111e3565b5b50905061120c9190611242565b5090565b81548183558181111561123d5760060281600602836000526020600020918201910161123c9190611267565b5b505050565b61126491905b80821115611260576000816000905550600101611248565b5090565b90565b6112f991905b808211156112f557600080820160009055600182016000905560028201600090556003820160006101000a81549073ffffffffffffffffffffffffffffffffffffffff02191690556004820160006101000a81549073ffffffffffffffffffffffffffffffffffffffff02191690556005820160006112ec91906112fc565b5060060161126d565b5090565b90565b50805460018160011615610100020316600290046000825580601f106113225750611341565b601f0160209004906000526020600020908101906113409190611242565b5b50565b60008135905061135381611dcc565b92915050565b60008151905061136881611dcc565b92915050565b600082601f83011261137f57600080fd5b813561139261138d82611c57565b611c2a565b915080825260208301602083018583830111156113ae57600080fd5b6113b9838284611d79565b50505092915050565b6000813590506113d181611de3565b92915050565b6000602082840312156113e957600080fd5b60006113f784828501611344565b91505092915050565b60006020828403121561141257600080fd5b600061142084828501611359565b91505092915050565b60006020828403121561143b57600080fd5b6000611449848285016113c2565b91505092915050565b6000806000806080858703121561146857600080fd5b6000611476878288016113c2565b9450506020611487878288016113c2565b935050604061149887828801611344565b925050606085013567ffffffffffffffff8111156114b557600080fd5b6114c18782880161136e565b91505092959194509250565b60006114d9838361196c565b905092915050565b6114ea81611d43565b82525050565b6114f981611cfb565b82525050565b61150881611cfb565b82525050565b61151781611ce9565b82525050565b61152681611ce9565b82525050565b600061153782611c93565b6115418185611cb6565b93508360208202850161155385611c83565b8060005b8581101561158f578484038952815161157085826114cd565b945061157b83611ca9565b925060208a01995050600181019050611557565b50829750879550505050505092915050565b6115aa81611d0d565b82525050565b60006115bb82611c9e565b6115c58185611cc7565b93506115d5818560208601611d88565b6115de81611dbb565b840191505092915050565b60006115f482611c9e565b6115fe8185611cd8565b935061160e818560208601611d88565b61161781611dbb565b840191505092915050565b600061162f601f83611cd8565b91507f526f6c65733a206163636f756e7420616c72656164792068617320726f6c65006000830152602082019050919050565b600061166f602b83611cd8565b91507f43726f776473616c653a2053656e646572206973206e6f7420746865206f776e60008301527f6572206f6620746f6b656e0000000000000000000000000000000000000000006020830152604082019050919050565b60006116d5602283611cd8565b91507f43726f776473616c653a20546f6b656e20697320616c7265616479206c69737460008301527f65640000000000000000000000000000000000000000000000000000000000006020830152604082019050919050565b600061173b603083611cd8565b91507f4d696e746572526f6c653a2063616c6c657220646f6573206e6f74206861766560008301527f20746865204d696e74657220726f6c65000000000000000000000000000000006020830152604082019050919050565b60006117a1602183611cd8565b91507f526f6c65733a206163636f756e7420646f6573206e6f74206861766520726f6c60008301527f65000000000000000000000000000000000000000000000000000000000000006020830152604082019050919050565b6000611807602283611cd8565b91507f526f6c65733a206163636f756e7420697320746865207a65726f20616464726560008301527f73730000000000000000000000000000000000000000000000000000000000006020830152604082019050919050565b600061186d602f83611cd8565b91507f43726f776473616c653a20506c65617365207061792074686520616d6f756e7460008301527f20657175616c20746f20707269636500000000000000000000000000000000006020830152604082019050919050565b60006118d3603c83611cd8565b91507f43726f776473616c653a204e465443726f776473616c65206973206e6f74207060008301527f726f766964656420617070726f76616c20746f207472616e73666572000000006020830152604082019050919050565b6000611939601f83611cd8565b91507f5265656e7472616e637947756172643a207265656e7472616e742063616c6c006000830152602082019050919050565b600060c08301600083015161198460008601826119f5565b50602083015161199760208601826119f5565b5060408301516119aa60408601826119f5565b5060608301516119bd606086018261150e565b5060808301516119d060808601826114f0565b5060a083015184820360a08601526119e882826115b0565b9150508091505092915050565b6119fe81611d39565b82525050565b611a0d81611d39565b82525050565b6000606082019050611a2860008301866114e1565b611a3560208301856114e1565b611a426040830184611a04565b949350505050565b60006020820190508181036000830152611a64818461152c565b905092915050565b6000602082019050611a8160008301846115a1565b92915050565b60006020820190508181036000830152611aa081611622565b9050919050565b60006020820190508181036000830152611ac081611662565b9050919050565b60006020820190508181036000830152611ae0816116c8565b9050919050565b60006020820190508181036000830152611b008161172e565b9050919050565b60006020820190508181036000830152611b2081611794565b9050919050565b60006020820190508181036000830152611b40816117fa565b9050919050565b60006020820190508181036000830152611b6081611860565b9050919050565b60006020820190508181036000830152611b80816118c6565b9050919050565b60006020820190508181036000830152611ba08161192c565b9050919050565b6000602082019050611bbc6000830184611a04565b92915050565b600060c082019050611bd76000830189611a04565b611be46020830188611a04565b611bf16040830187611a04565b611bfe606083018661151d565b611c0b60808301856114ff565b81810360a0830152611c1d81846115e9565b9050979650505050505050565b6000604051905081810181811067ffffffffffffffff82111715611c4d57600080fd5b8060405250919050565b600067ffffffffffffffff821115611c6e57600080fd5b601f19601f8301169050602081019050919050565b6000819050602082019050919050565b600081519050919050565b600081519050919050565b6000602082019050919050565b600082825260208201905092915050565b600082825260208201905092915050565b600082825260208201905092915050565b6000611cf482611d19565b9050919050565b6000611d0682611d19565b9050919050565b60008115159050919050565b600073ffffffffffffffffffffffffffffffffffffffff82169050919050565b6000819050919050565b6000611d4e82611d55565b9050919050565b6000611d6082611d67565b9050919050565b6000611d7282611d19565b9050919050565b82818337600083830152505050565b60005b83811015611da6578082015181840152602081019050611d8b565b83811115611db5576000848401525b50505050565b6000601f19601f8301169050919050565b611dd581611ce9565b8114611de057600080fd5b50565b611dec81611d39565b8114611df757600080fd5b5056fea365627a7a72315820572578a6c1eb2f9c5f167a19d5e7a4330b6fbb258a0f24ff4876e7ee25d03c296c6578706572696d656e74616cf564736f6c63430005110040",
  "source": "pragma solidity >=0.4.21 <0.6.0;\npragma experimental ABIEncoderV2;\n\nimport \"./HRC721.sol\";\nimport \"@openzeppelin/contracts/math/SafeMath.sol\";\nimport \"@openzeppelin/contracts/utils/ReentrancyGuard.sol\";\nimport \"@openzeppelin/contracts/access/roles/MinterRole.sol\";\n\ncontract NFTCrowdsale is MinterRole, ReentrancyGuard {\n    using SafeMath for uint256;\n\n    struct Item {\n        uint256 index;\n        uint256 tokenID;\n        uint256 price;\n        address tokenAddress;\n        address payable owner;\n        string url;\n    }\n\n    Item[] public items;\n    mapping (uint256 => bool) public listedTokens;\n\n    function listForSale(uint256 _tokenID,uint256 _price,address _tokenAddress,string memory _url) public nonReentrant {\n        uint256 index = items.length;\n        HRC721 hrc721 = HRC721(_tokenAddress);\n        \n        //Checks\n        //Check if the owner of the token is msg.sender\n        require(msg.sender == hrc721.ownerOf(_tokenID), \"Crowdsale: Sender is not the owner of token\");\n\n        //Check if the token ID is already listed\n        require(!listedTokens[_tokenID], \"Crowdsale: Token is already listed\");\n\n        //Check if the crowdsale is approved for transfer for the tokenID\n        require(\n            address(this) == hrc721.getApproved(_tokenID),\n            \"Crowdsale: NFTCrowdsale is not provided approval to transfer\");\n        \n        items.push(Item(index, _tokenID, _price, _tokenAddress, msg.sender, _url));\n        listedTokens[_tokenID] = true;\n    }\n\n    function buyNFT(uint256 _index) public payable nonReentrant {\n\n        //Checks\n        //Check if required price is supplied\n        require(msg.value == items[_index].price, \"Crowdsale: Please pay the amount equal to price\");\n\n        //Transfer the NFT to the buyer\n        HRC721 hrc721 = HRC721(items[_index].tokenAddress);\n        hrc721.safeTransferFrom(items[_index].owner, msg.sender, items[_index].tokenID);\n\n        //Transfer the amount to owner\n        items[_index].owner.transfer(msg.value);\n\n        listedTokens[items[_index].tokenID] = false;\n        \n        //Remove the item from the list\n        items[items.length-1].index = _index;\n        items[_index] = items[items.length-1];\n        items.length--;   \n    }\n\n    function getItemsList() external view returns(Item[] memory) {\n        return items;\n    }\n\n    function totalItems() external view returns(uint256) {\n        return items.length;\n    }\n}",
  "sourcePath": "/home/ak/Documents/Ibriz/nft/nft-contract-master/contracts/Crowdsale.sol",
  "compiler": {
    "name": "solc",
    "version": "0.5.17+commit.d19bba13.Emscripten.clang"
  },
  "schemaVersion": "3.3.2",
  "updatedAt": "2020-12-30T06:11:26.773Z",
  "networkType": "ethereum",
  "devdoc": {
    "methods": {}
  },
  "userdoc": {
    "methods": {}
  }
}